:10000000F8FF022011040000F94F0000F94F000032
:10001000F94F0000F94F0000F94F0000F94F0000C0
:10002000F94F0000F94F0000F94F0000F94F0000B0
:10003000F94F0000F94F0000F94F0000F94F0000A0
:10004000F94F0000F94F0000F94F0000F94F000090
:100050004D530000F94F0000F94F0000F94F000028
:10006000F94F0000F94F0000F94F0000F94F000070
:10007000F94F0000F94F0000F94F0000F94F000060
:10008000F94F0000F94F0000F94F0000F94F000050
:10009000F94F0000F94F0000F94F0000F94F000040
:1000A000F94F0000F94F0000F94F0000F94F000030
:1000B000F94F0000F94F0000F94F000055480000CB
:1000C000F94F000079480000F94F00009D480000FA
:1000D000F94F0000C1480000F94F0000F94F00003F
:1000E000F94F0000F94F0000C1180000E3180000AC
:1000F000F3180000F94F0000F94F0000F94F00001D
:10010000F73B0000093F0000874A0000954A0000C5
:10011000F94F0000F94F0000F94F0000F94F0000BF
:10012000F94F0000F94F00006F2400003323000056
:100130006D2300004F3E0000D33E0000A7230000C7
:10014000F94F0000F94F0000253E0000F94F000074
:10015000F94F0000F94F0000F94F0000F94F00007F
:10016000F94F0000F94F0000F94F0000F94F00006F
:10017000F94F0000F94F0000F94F0000F94F00005F
:10018000F94F0000F94F0000F94F0000F94F00004F
:10019000F94F0000F94F0000F94F0000095000002E
:1001A000F94F0000F94F0000F94F0000F94F00002F
:1001B000F94F0000F94F0000F94F0000F94F00001F
:1001C000F94F0000F94F0000F94F0000F94F00000F
:100410004FF000004FF000014FF000024FF00003DA
:100420004FF000044FF000054FF000064FF00007BA
:100430004FF000084FF000094FF0000A4FF0000B9A
:100440004FF0000C62B604F077FEFEE71EF0040FDA
:100450000CBFEFF30880EFF3098004F0E0BD01B4B6
:1004600004B408B410B4074B074C0022206840F4D1
:100470000000206018681A6010BC08BC04BC01BCF5
:1004800070470000007003403C80044080B5DFF8F6
:10049000F8090078012803D10020DFF8F01908607E
:1004A000DFF8E809006840F65431884204DB40F682
:1004B0005430DFF8D8190860DFF8D0090068DFF899
:1004C000D019884204DADFF8CC09DFF8C0190860D7
:1004D000DFF8B8090068012810DB00220021DFF8EE
:1004E000580D01F0A0F9DFF8A4090068020092B2EB
:1004F0000121DFF8440D01F096F922E0DFF88C09C4
:100500000068002811D5DFF8840900684042020025
:1005100092B20021DFF8200D01F085F900220121BF
:10052000DFF8140D01F07FF90BE000220021DFF865
:10053000080D01F078F900220121DFF8FC0C01F030
:1005400072F901BD38B5DFF8500990ED000AB5EE3B
:10055000400AF1EE10FAC0F29C80DFF83C09006816
:1005600001F00EFA02000B0014001D00DFF82C0948
:10057000006801F005FA5FF03332DFF8243901F04A
:1005800023FA22002B0001F0DBFA0AD8DFF8140965
:10059000DFF814190160DFF814095FF07F51016082
:1005A00081E0DFF8F408006801F0EAF902000B00CE
:1005B00014001D00DFF8E408006801F0E1F95FF0C5
:1005C0003332DFF8EC3801F0FFF922002B0001F0A4
:1005D000B7FA0AD8DFF8CC08DFF8D8180160DFF8DE
:1005E000CC085FF07F5101605DE0DFF8B00890ED6E
:1005F000000ADFF8A408D0ED000AB4EE600AF1EEBC
:1006000010FA0ADBDFF89C08DFF8AC180160DFF8AD
:100610009C085FF07F51016045E0DFF87C080068CE
:1006200001F0AEF9DFF89428DFF8943801F0CCF946
:1006300002000B0014001D00DFF86008006801F0E4
:100640009FF922002B0001F097FA0AD2DFF8540834
:10065000DFF870180160DFF854085FF07F51016027
:1006600021E0DFF8380890ED000ADFF82C08D0ED23
:10067000000AB4EE600AF1EE10FA14D5DFF824088F
:10068000DFF834180160DFF824085FF07F51016063
:1006900009E0DFF81008DFF820180160DFF80C0827
:1006A0005FF07F510160DFF820080078012854D006
:1006B000DFF8E40790ED000ADFF8E007D0ED000A6C
:1006C00030EE600ADFF8740B80ED000ADFF8BC073B
:1006D00090ED000AB8EEC00ADFF8600BD0ED000A1A
:1006E000DFF8C00790ED001A60EE810ADFF8500BCA
:1006F00090ED001AF0EE001ADFF8400B90ED002AA2
:1007000001EE612ADFF83C0B90ED001A32EE011A7F
:10071000DFF89807D0ED001A41EE210A30EE200AEA
:10072000BDEEC00ADFF8640780ED000ADFF8140BA5
:10073000DFF80C1B09680160DFF8040BDFF8FC1A16
:1007400009680160DFF8000B007800281AD0DFF894
:100750004807DFF8F81A016014E0DFF8400790ED71
:10076000000ADFED1B0AB4EE600AF1EE10FA05DBB9
:10077000DFF8DC0ADFF81417086003E00020DFF878
:100780000C17086031BD80B5DFF8C80A006840F674
:100790007561884204DB40F67460DFF8B81A0860BF
:1007A000DFF8B00A006840F6C411884204DA40F667
:1007B000C410DFF8A01A0860DFF8980A0068020089
:1007C00092B20621DFF8900A01F02DF801BD000079
:1007D0000100003F38B5DFF8840A00683D2826DBB9
:1007E000DFF87C0A00683C2821DADFF8700A00682C
:1007F000DFF86C1A0968401A01F0D5F9072816DBF2
:10080000DFF8600A00683D2811DBDFF85C0A007839
:1008100000280CD1DFF8540A0078002807D1002006
:10082000DFF84C1A08700120DFF8401A0870DFF872
:10083000300A00683D2826DBDFF8200A00683C28E3
:1008400021DADFF81C0A0068DFF8101A0968401A7C
:1008500001F0A9F9072816DBDFF8080A00683D282F
:1008600011DBDFF8040A007800280CD1DFF8000A59
:100870000078002807D10120DFF8F4190870002063
:10088000DFF8E8190870DFF8DC09006856282CDB6F
:10089000DFF8CC090068382827DBDFF8C0090068DA
:1008A000382822DBDFF8B8090068DFF8B0190968DA
:1008B000401A01F078F90B2817DBDFF8AC09007853
:1008C000002812D1DFF8A8090078012804D0DFF849
:1008D0009C090078012808D1DFF8980900780028E1
:1008E00003D10120DFF880190870DFF8780900686B
:1008F000372822DADFF8640900682D2804DBDFF8E6
:10090000600900682D2818DADFF85C0900780128F2
:1009100013D10020DFF8501908700020DFF84C19BF
:1009200008700020DFF8481908700120DFF844192A
:1009300008700220DFF840190870DFF838090078E5
:1009400002280FD10020DFF82C1908700020DFF8F2
:10095000181908700020DFF8141908700020DFF85B
:1009600010190870DFF8F80800681538132831D21C
:10097000DFF8E8080068153813282BD2DFF8E00804
:100980000168DFF8D8080068091A0A2901DA01208D
:1009900000E00020C0B201F006F900281AD0DFF80C
:1009A000940B0168DFF8900B0068091A0A2901DA34
:1009B000012000E00020C0B201F0F5F8002809D0C5
:1009C000DFF8A00800683C2804DA0120DFF8A81846
:1009D000087003E00220DFF8A0180870DFF8BC04FC
:1009E00090ED000ADFED170AB4EE600AF1EE10FA9E
:1009F00039DBDFF86C0800681538132833D2DFF8CC
:100A00005C080068153813282DD2DFF854080168F7
:100A1000DFF848080068091A0A2901DA012000E015
:100A20000020C0B201F0BFF800281CD0DFF8040B92
:100A30000168DFF8040B0068091A0A2904DA0120AA
:100A400003E000BF9A99993F0020C0B201F0ABF8D3
:100A5000002808D0DFF80C0800683C2803DA0320DF
:100A6000DFF814180870DFF8200B0068DFF81C1B93
:100A70000968401A01F09CF80022DFF8143B01F0ED
:100A8000A9F804000D00DFF8040B0068DFF8F81A7D
:100A90000968081801F08CF802000B0020002900FA
:100AA00001F06AF901F08CFADFF8E81A0860DFF863
:100AB000C8070078022829D1DFF8CC0A0168DFF8DE
:100AC000D80A00684118DFF8C40A0068091ADFF87C
:100AD000CC0A0068091A96204143DFF8B00A026880
:100AE000DFF8A40A00688218DFF8B00A00688218EC
:100AF000DFF8A40A0068821891FBF2F000EE100AF9
:100B0000B8EEC00ADFF88C0A80ED000ADFF858075B
:100B1000007801283DD1DFF854070078012819D169
:100B2000DFF8640A0168DFF8740A0068091AC8204F
:100B30004143DFF8540A0268DFF8600A006882184F
:100B400091FBF2F000EE100AB8EEC00ADFF8440A9A
:100B500080ED000ADFF818070078012819D1DFF8C6
:100B6000380A0168DFF8240A0068091AC8204143DE
:100B7000DFF8240A0268DFF8140A0068821891FB83
:100B8000F2F000EE100AB8EEC00ADFF8080A80EDB5
:100B9000000ADFF8000A006800F0F2FE04000D0011
:100BA000DFF8F00990ED000ADFF8E809D0ED000A5F
:100BB00020EE200A10EE100A00F0E2FE0022DFF81C
:100BC000E03901F0D9F800225FF0804300F0FCFE2C
:100BD00022002B0000F0FEFF0022DFF8C83901F0F0
:100BE000CBF801F0EDF9DFF8AC190860DFF8B809CF
:100BF00090ED000AF1EE040A20EE200ADFF89409D5
:100C0000D0ED000A9FED731A00EE201ADFF8840978
:100C100090ED000ADFF89409D0ED000A30EE600A8A
:100C2000DFF88C09D0ED000A00EE201ABDEEC10AF3
:100C3000DFF8200680ED000ADFF87009DFF85419AC
:100C400009680160DFF86C090078022837D1DFF805
:100C50000C060168DFF808060068091A242912DB6F
:100C6000DFF80406007800280DD1DFF804060078CC
:100C7000002808D1DFF8F4050078002803D101200E
:100C8000DFF830190870DFF8D8050168DFF8CC0507
:100C90000068091A242912DBDFF8CC050078002847
:100CA0000DD1DFF8CC050078002808D1DFF8BC05AD
:100CB0000078002803D10020DFF8F8180870DFF86A
:100CC000F4080078012804D140F67460DFF8841538
:100CD0000860DFF8E0080078002804D140F6C4106E
:100CE000DFF8701508600220DFF8C8180870DFF818
:100CF0007005006804281DDADFF860050068042824
:100D000018DADFF8B4080078002813D10120DFF8E2
:100D100038150870DFF83C05006840F6D631884287
:100D200004DB0120DFF89018087003E00220DFF8F0
:100D300088180870DFF81005007800281ED1DFF849
:100D400038050078012803D15348DFF87018016096
:100D5000DFF824050078022803D14F485FF07E5168
:100D60000160DFF814050078032803D14A48DFF852
:100D7000501801600020DFF8D0140870DFF8380840
:100D80000078012804D140F6C410DFF8C8140860C8
:100D9000DFF824080078022804D140F67460DFF8F8
:100DA000B4140860DFF810080078002811D0DFF8CC
:100DB000B0040068042804DADFF8A00400680428FE
:100DC00007DB0020DFF8F01708700020DFF8781448
:100DD000087031BD00603D45DFF8E8070078012864
:100DE00003D12D485FF07E510160DFF8D80700780D
:100DF00002280CD10120DFF8D017087026485FF0D8
:100E00007E51016040F6C410DFF848140860DFF836
:100E1000B8070078012809D1DFF8B0070078012869
:100E200004D140F69850DFF82C140860DFF89807DA
:100E30000078012809D1DFF898070078012804D14B
:100E400040F67460DFF80C140860DFF87C07007867
:100E5000012818D1DFF87C070078012813D1002081
:100E6000DFF8641708700020DFF8601708700020B2
:100E7000DFF85C1708700020DFF8581708700020B2
:100E8000DFF84017087070476504FF1FDC05FF1F7F
:100E9000ADF4FFFFACF4FFFF3C04FF1FD005FF1FC4
:100EA0003333D3BF4004FF1F0000B4424404FF1F8C
:100EB0003333C3BF00008C420000F0419A999999E6
:100EC0009999C9BF000048426404FF1F002010E048
:100ED000DFF804170200D2B2524201EB8201096A24
:100EE000DFF8F4260300DBB25B4202EB83025162BF
:100EF000401C0100C9B20929EADBD9480068DFF8C3
:100F0000D8160860002010E0DFF8D0160200D2B238
:100F1000524201EB8201096ADFF8C0260300DBB20E
:100F20005B4202EB83025162401C0100C9B20929F5
:100F3000EADBCA480068DFF8A4160860002010E069
:100F4000DFF89C160200D2B2524201EB8201096A1C
:100F5000DFF88C260300DBB25B4202EB83025162B6
:100F6000401C0100C9B20929EADBBE480068DFF86D
:100F700070160860002010E0DFF868160200D2B298
:100F8000524201EB8201096ADFF858260300DBB206
:100F90005B4202EB83025162401C0100C9B2092985
:100FA000EADBDFF890050068DFF8381608600020FB
:100FB00010E0DFF834160200D2B2524201EB820197
:100FC000096ADFF824260300DBB25B4202EB8302EE
:100FD0005162401C0100C9B20929EADBDFF858055B
:100FE0000068DFF804160860002010E0DFF8FC1548
:100FF0000200D2B2524201EB8201096ADFF8EC250D
:101000000300DBB25B4202EB83025162401C010031
:10101000C9B20929EADBDFF8D8050068DFF8CC158A
:101020000860DFF8B4050168DFF8AC0540684118D6
:10103000DFF8A40580684118DFF89C05C0684118F6
:10104000DFF8940500694118DFF88C054069411804
:10105000DFF8840580694118DFF87C05C069411814
:10106000DFF87405006A4118DFF86C05406A411822
:101070000A20B1FBF0F07A490860DFF860050168EA
:10108000DFF8580540684118DFF8500580684118BE
:10109000DFF84805C0684118DFF8400500694118CD
:1010A000DFF8380540694118DFF8300580694118DC
:1010B000DFF82805C0694118DFF82005006A4118EB
:1010C000DFF81805406A41180A20B1FBF0F06349C7
:1010D0000860DFF80C050168DFF804054068411876
:1010E000DFF8FC0480684118DFF8F404C068411898
:1010F000DFF8EC0400694118DFF8E40440694118A6
:10110000DFF8DC0480694118DFF8D404C0694118B5
:10111000DFF8CC04006A4118DFF8C404406A4118C3
:101120000A20B1FBF0F04F490860DFF8B80401680D
:10113000DFF8B00440684118DFF8A804806841185F
:10114000DFF8A004C0684118DFF89804006941186E
:10115000DFF8900440694118DFF88804806941187D
:10116000DFF88004C0694118DFF87804006A41188C
:10117000DFF87004406A41180A20B1FBF0F0DFF894
:10118000B4130860DFF860040168DFF85C044068AD
:101190004118DFF8540480684118DFF84C04C06837
:1011A0004118DFF8440400694118DFF83C04406945
:1011B0004118DFF8340480694118DFF82C04C06955
:1011C0004118DFF82404006A4118DFF81C04406A63
:1011D00041180A20B1FBF0F0D7490860DFF80C0491
:1011E0000168DFF8080440684118DFF800048068EF
:1011F0004118DFF8F803C0684118DFF8F003006910
:101200004118DFF8E80340694118DFF8E00380691E
:101210004118DFF8D803C0694118DFF8D003006A2D
:101220004118DFF8C803406A41180A20B1FBF0F00A
:10123000DFF8BC1308607047008003401C06FF1FE6
:101240002006FF1F2406FF1F3B06FF1F333333BF5B
:1012500044FDFFFF3004FF1F00900B40B805FF1F47
:10126000B405FF1FBC05FF1F3606FF1F3506FF1F15
:101270003406FF1F3706FF1F3906FF1F80B50A23FC
:1012800001220E21012000F098FFDFF868130860AA
:101290000A2301220F21012000F08FFFDFF85813ED
:1012A00008600A2301220A21012000F086FFDFF8EE
:1012B0004C1308600A2301220D21012000F07DFF5C
:1012C0009C4908600A2301220C21012000F075FFCF
:1012D000994908600A2301220B21012000F06DFFCB
:1012E000DFF80C130860DFF80C03006840F6AD511E
:1012F000884205DB40F6AC50DFF8F812086005E0E4
:10130000DFF8F0020068DFF8EC120860DFF8E802AE
:10131000006840F6AD51884205DB40F6AC50DFF87E
:10132000D812086005E0DFF8D0020068DFF8C812C4
:101330000860DFF8C802006840F6AD51884205DB5E
:1013400040F6AC50DFF8B412086005E0DFF8AC02FC
:101350000068DFF8A81208607648006840F6AD51D2
:10136000884204DB40F6AC507249086003E07148E3
:101370000068704908607048006840F6AD518842C6
:1013800004DB40F6AC506C49086003E06A48006832
:1013900069490860DFF85802006840F6AD5188429C
:1013A00005DB40F6AC50DFF84812086005E0DFF8D6
:1013B00040020068DFF838120860DFF83802006881
:1013C000002804D50020DFF82C12086005E0DFF8C3
:1013D00024020068DFF81C120860DFF81C020068B5
:1013E000002804D50020DFF81012086005E0DFF8BF
:1013F00008020068DFF800120860DFF800020068E9
:10140000002804D50020DFF8F411086005E0DFF8BB
:10141000EC010068DFF8E411086046480068002825
:1014200003D500204349086003E042480068414971
:10143000086041480068002803D500203E49086044
:1014400003E03D4800683C490860DFF8A4010068FB
:10145000002804D50020DFF89811086005E0DFF8C7
:1014600090010068DFF888110860FFF72FFDDFF8B2
:101470008401006845490860DFF87C010068424942
:101480000860DFF878010068DFF874110860294807
:10149000006842490860284800683F490860DFF852
:1014A00050010068DFF85C110860DFF8480101684E
:1014B0006420414340F6AC5091FBF0F0DFF834116A
:1014C0000860DFF8340101686420414340F6AC5005
:1014D00091FBF0F0DFF820110860DFF820010168CF
:1014E0006420414340F6AC5091FBF0F0DFF80C1162
:1014F0000860104801686420414340F6AC5091FBFD
:10150000F0F00C4908600C4801686420414340F643
:10151000AC5091FBF0F008490860DFF8D400016896
:101520006420414340F6AC5091FBF0F0DFF8C0106E
:10153000086001BDC005FF1FC405FF1F80B5DFF8AF
:10154000C80000F0B7F94042DFF8C01008602F482B
:10155000006800F02DFB00222D4B00F00DFC00F088
:101560002FFD2C49086001BD80B5012204212A48C5
:1015700000F096FE142000F04DFF002204212648C2
:1015800000F08EFE01BD0000A005FF1F9C05FF1F9F
:1015900000005940D405FF1FAC05FF1FA805FF1F21
:1015A00000889340000024402804FF1FD805FF1F37
:1015B0002C04FF1F3A06FF1F3806FF1F9A99993F18
:1015C0003333B33F3E06FF1F3D06FF1F3F06FF1F9D
:1015D0004006FF1F4106FF1F6804FF1F9004FF1F06
:1015E000B804FF1FE004FF1F0805FF1F3005FF1FA1
:1015F000C805FF1FB405FF1FB805FF1FBC05FF1F6F
:10160000A405FF1FB005FF1F00A00340CC05FF1F6E
:1016100000F07640D005FF1F80F00F4030B404008A
:10162000DFF8E052AC420DD0DFF8DC52AC4252D0D1
:10163000DFF8D852AC426AD0DFF8D452AC4200F0A6
:1016400082809DE0DFF8CC42246854F08074DFF89B
:10165000C4522C600C00E4B2002C0BD0022C15D02C
:101660000ED3042C1ED017D3062C27D020D3072C42
:101670002AD02FE04FF48064DFF89C522C607FE08A
:101680004FF48064DFF894522C60F8E74FF48064E4
:10169000DFF88C522C60F2E74FF48064DFF884525C
:1016A0002C60ECE74FF48064DFF87C522C60E6E7B6
:1016B0004FF48064DFF874522C60E0E74FF48064EC
:1016C000DFF86C522C60DAE74FF48064DFF8645284
:1016D0002C60D4E7A5E0DFF83C42246854F00074A5
:1016E000DFF830522C600C00E4B2002C02D0012C48
:1016F00006D00BE04FF44074DFF83C522C603FE022
:101700004FF44074DFF834522C60F8E789E0DFF8DA
:101710000442246854F08064DFF8F8512C600C0017
:10172000E4B2002C02D0012C06D00BE04FF4407440
:10173000DFF80C522C6023E04FF44074DFF80452C1
:101740002C60F8E76DE0DFF80042246854F0007484
:10175000DFF8F4512C600C00E4B2002C0BD0022C0A
:101760002DD026D3042C36D02FD3062C3FD038D3FF
:10177000072C42D047E04FF4C064DFF8D0512C6012
:101780000C00E4B200EBC404E46834F004040D007F
:10179000EDB200EBC505EC6028240D00EDB200EBC6
:1017A000C505EC60DFF86841A0422DD10C2404602F
:1017B0002CE04FF4C064DFF898512C60E0E74FF460
:1017C000C064DFF890512C60DAE74FF4C064DFF8B2
:1017D00088512C60D4E74FF4C064DFF880512C604E
:1017E000CEE74FF4C064DFF878512C60C8E74FF4BF
:1017F0004074DFF870512C60C2E74FF44074DFF89A
:1018000068512C60BCE70CE00B24046092B282604B
:101810000022C2649BB2C9B200EBC1010B6100217E
:10182000416030BC704792B2C9B200EBC1000261A6
:1018300070470100344A914203D0344A91420FD09C
:101840001CE03449096851F00071324A11604FF4CC
:10185000E061464A11604FF4E061454A11600DE0D5
:101860002C49096851F080612A4A11604FF4C06127
:10187000334A11604FF4C061324A1160416D51F03A
:1018800004014165D0F8801051F00801C0F88010C3
:101890000021C1644FF6FF718160D0F8801051F0D3
:1018A0000101C0F88010416D51F001014165002136
:1018B000416070470100486800224A6000B27047EA
:1018C00080B52C48006800212A4A116003210122BA
:1018D00012FA01F1C0B2084202D0842000F0F1FCFB
:1018E00001BD254800680020234908600020012030
:1018F000704722480068002020490860002001202D
:1019000070470000008003400090034000A00340A7
:1019100000900B403C80044004B0044008B00440F8
:101920000CB0044010B0044010C0044014C0044087
:1019300018C004401CC0044020900440249004407F
:1019400048A004404CA004403080044014D004401F
:1019500018D004401CD0044020D0044024D00440BF
:1019600028D0044028B004402CB0044030900440FB
:1019700034900440508003405090034050A00340F6
:10198000C0F3C75181B1FF2906D0C110400721F033
:10199000E04101F16051704741020CBF40F4E001A9
:1019A0006FF000410020704700F0004100020AD0B3
:1019B000B0FA80FC00FA0CF001F16051A1EB0C517F
:1019C00001EBD0214005704770B44FF0004591EA1B
:1019D000030F40F165856B40841A71EB030604D256
:1019E0006E40001BB141121973414FF4001C1CEBF7
:1019F000410F34BF7CEB430682E00C0DA4EB135681
:101A0000362E7BDC012E45EAC32341DC43EA5253E8
:101A100012BFD20292025B08240545EAC12141EAC5
:101A20005051D2EBC020994125D407D1B0FA80F6AD
:101A300010FA06F162D00020203608E0B1FA81F6F3
:101A4000B140C6F1200220FA02F21143B0404FEA41
:101A5000F474B4EB465434F001064FEA74040AD827
:101A6000D6F50016760D04F00044F04061FA06F257
:101A70005040F1404840C00A40EA415021F0004146
:101A800028BF5FEA500550F1000044EBD12135E05A
:101A9000DB0A45EAC121C90AB6F120050EDD42EA9A
:101AA0000242120CC5F1200603FA06F6EB4042EAA8
:101AB00006056D42984161F100010DE062FA06F5FC
:101AC000F240554063FA06FC82EA0C02F3405A40A9
:101AD0006D42904161EB030111F4801F05D1641E3A
:101AE000620502D06D004041494121F48011430854
:101AF00075F1004350F1000041EB045170BC704798
:101B00001CEB410F15D223F0004352EA43060BD0E1
:101B10004FEA4C0CBCEB410F04D80C0D661E342E62
:101B2000B7DDEBE7801A994150EA410608BF002172
:101B3000E4E708BF1CEB430F28BF6FF00001DDE7AF
:101B40004FF4001C1CEB410F94BF1CEB430F09E04A
:101B500041EA030C50EA4C0C52EA0C0C03D28B42C3
:101B600008BF8242704714BF994290427047026892
:101B7000531C0360117070474FF4001C1CEB410FA5
:101B800094BF1CEB430F09E041EA030C50EA4C0CF4
:101B900052EA0C0C03D2994208BF9042704714BF1E
:101BA0008B4282427047002848BF40427047000085
:101BB000C11768B14840401AB0FA80F29040D21C78
:101BC000C907C2F5846241EA025202EBD021400506
:101BD00070470000B0B581EA030C0CF0004C40F2F5
:101BE000FF7515EA11541DBF15EA1357AC42AF42F9
:101BF00039E0E41923EA455343F48013C90241F064
:101C0000004141EA505EC7021100A7FB0202002812
:101C10004FF00000EEFB01204FF00001E3FB072135
:101C200018BF42F00102401800214941E3FB0E01B8
:101C3000A4F580640F0302D252004041494154F19F
:101C400001046CDD470872F1004250F1000051EBD5
:101C50000451A1F580115CBF41EA0C01B0BD4CEA12
:101C600005510020B0BD05EA1357AC4214BFAF4286
:101C700041E050EA410E1CBF52EA430E02E06146C9
:101C80000020B0BD24423C441BD15FEA070EF6D0D1
:101C9000090302BF01460020AEF1140EB1FA81F72C
:101CA000AEEB070401FA07FE0C37C7F1200100FA7A
:101CB00007F7C8404EEA000E23EA455343F4801369
:101CC000A2E733F00043B3FA83F704BFB2FA82FE0F
:101CD00077440B3FE41BB7F1200E2FBF02FA0EF33F
:101CE000BB40C7F1200E22FA0EFE38BF43EA0E03B6
:101CF000BA40641C82E750EA410E14BF52EA430E18
:101D00006FF000014FF4001717EB430F8ABF19461D
:101D100017EB410FB5E74CEA05510020B0BDD4F1F7
:101D20000104B4F120070FDAC4F12007520828BFDC
:101D300042F0010210FA07F501FA07F7E1BF2A4362
:101D4000E0403843E1400FE0352C98DCC7F1200437
:101D500052EA400220FA07F218BF42F0010231FABB
:101D600007F0A1400A43002172F1004250F1000047
:101D700051EB0C01B0BD0000F0B540F2FF7581EAF7
:101D8000030C0CF0004C15EA11541DBF15EA135753
:101D9000AC42AF42E5E0BC41C1F31301C3F313030E
:101DA000801A994143F4801304D2641E40004941D3
:101DB00080185941C90241EA5051B1FBF3F603FBC7
:101DC0001611A2FB0675D7EBC020A94102D2761EE0
:101DD00080185941C90241EA5051B1FBF3FE03FB9F
:101DE0001E11A2FB0E75D7EBC020A94103D2AEF1A4
:101DF000010E80185941890241EA9051760546EA60
:101E00008E2EB1FBF3F603FB1611A2FB0675D7EB82
:101E10008020A94102D2761E80185941C90241EAA8
:101E200050514EEA060EB1FBF3F603FB1611A2FB6E
:101E30000675D7EBC020A94102D2761E8018594101
:101E4000C90241EA5051B1FBF3F703FB1711A2FBA2
:101E50000735D3EBC020A94167F100070CBF004252
:101E600047F0010766F3D5274FEA1E31B80814F58D
:101E7000806412DDBD0775F1004250EB0E5051EB4E
:101E8000045111F5801F5CBF41EA0C01F0BD4CF01C
:101E90007F6141F0E0410020F0BDBD076D0840EAE0
:101EA0000E5041F48011D4F10104B4F120060ADA95
:101EB000C4F120060200E04001FA06F3E1401843B5
:101EC000B24015430EE0342C13DCC6F1200445EA81
:101ED00040056D0820FA06F2154321FA06F0A140EC
:101EE0000D43002175F1004250F1000051EB0C014F
:101EF000F0BD00205FEA0C01F0BDCFB992185B4144
:101F0000B3FA83F704BFB2FA82F6BF190B3FB7F1F9
:101F100020062FBF02FA06F3BB40C7F1200622FAC3
:101F200006F638BF3343BA401CB1E419641E33E7E8
:101F30007F4231F00041B1FA81F404BFB0FA80F67B
:101F4000A4190B3CB4F120062FBF00FA06F1A14002
:101F5000C4F1200620FA06F638BF3143A0403C1BEE
:101F60001AE7AC421ABF05EA1357AF4212E050EA33
:101F700041061CBF52EA4306BFE750EA410730461C
:101F800061461CBF41EA0551F0BD52EA430C08BF4F
:101F9000C143F0BD00204FF4001616EB410F98BF6F
:101FA00016EB430F08BF16EB410F24BFC14305E0FA
:101FB00016EB430F0CBF61464CEA0551F0BD000023
:101FC00001F000428B1AA3F16051B1F5801F0ADBCA
:101FD000B1F17F6F1FD242EAC102C10071F100412D
:101FE00042EB507070470B15C3F10903212B10D23F
:101FF000890241EA905180020128494141F00041A3
:1020000021FA03F0C3F12003994071F100415041DE
:102010007047100070476FF0000013EB103F5CBF7B
:10202000000E42EAC0507047C0B2002810D13948B3
:10203000006850F00060374908603748006830F0A9
:1020400090003549086034480068334908600FE063
:102050003248006850F00060304908602E4800683F
:1020600030F410402C4908602B4800682A49086069
:102070007047C0B2002812D1D2B2920012F00C0206
:1020800052F05002264802600420264A1060C9B26D
:1020900011F01F0151F040012348016011E0D2B25C
:1020A000920012F00C0252F050022048026004200C
:1020B0001F4A1060C9B211F01F0151F040011D48C4
:1020C0000160704710B504000020D2B2C9B22000F0
:1020D000C0B2FFF7CEFFE4B2002C0DD11248006869
:1020E0000006FBD5144800680F49096831F08001EB
:1020F0000D4A116080B20CE00E4800680006FBD566
:102100000E4800680B49096831F08001094A1160E6
:1021100080B210BD3C8004401880044030800440F0
:1021200008B003400CB0034000B0034008B00B40BF
:102130000CB00B4000B00B4010B0034010B00B408F
:102140002DE9F04106000F0090464246D2B2390018
:10215000C9B23000C0B2FFF7B5FF05004246D2B2A7
:102160003900C9B23000C0B2FFF7ACFF04004246EC
:10217000D2B23900C9B23000C0B2FFF7A3FF0100EC
:1021800020002A0080B292B2904202D2280025009C
:10219000040020000A0080B292B2904201D22500D1
:1021A00007E028000A0080B292B2904201D20D00EE
:1021B000FFE7280080B2BDE8F0812DE9F843040074
:1021C0000D0016001F005FF000085FF000090BE033
:1021D0003200D2B22900C9B22000C0B2FFF7B0FF6E
:1021E00018FA80F819F101094846C0B2390080B2E6
:1021F00089B28842ECD3BFB2B8FBF7F080B2BDE839
:10220000F2830000012210F01F018A40754940B29C
:10221000400941F82020704770B4734C246854F48E
:102220007854714D2C600500704EAD1B08D0403DB8
:1022300008D0403D08D0403D08D0403D08D009E0DE
:102240006B4C07E06B4C05E06B4C03E06B4C01E022
:102250006B4CFFE74FF4807544F82150D2B2012A4D
:1022600015D1426901248C4022434261012B06D1E1
:102270000268012313FA01F1114301600EE00268C4
:10228000012313FA01F132EA0101016006E042691B
:10229000012313FA01F132EA0101416170BC704778
:1022A000012A06D10268012313FA01F111430160EA
:1022B00006E00268012313FA01F132EA010101602C
:1022C000704701004F480A00D2B2521150F8220064
:1022D000006911F01F01C84010F00100704738B5C7
:1022E000424D401B08D0403809D040380AD0403811
:1022F0000BD040380CD00EE03D4C3B230BE03D4C66
:102300003C2308E03C4C3D2305E03C4C3E2302E0EE
:102310003B4C3F23FFE7D2B2120412F4702252F476
:102320008072C9B244F82120180040B2FFF76AFF5A
:1023300031BD002034490968C140C90707D5324979
:102340000968012212FA00F008432F4908600120B1
:102350002D490968C140C90707D52B4909680122E1
:1023600012FA00F008432849086070470020274906
:102370000968C140C90707D524490968012212FA32
:1023800000F0084321490860012020490968C14044
:10239000C90707D51D490968012212FA00F0084350
:1023A0001A4908607047002019490968C140C907E7
:1023B00007D517490968012212FA00F008431449A9
:1023C0000860012012490968C140C90707D51049B2
:1023D0000968012212FA00F008430D4908607047AD
:1023E0000000000000E100E03880044000F00F40F1
:1023F0000090044000A0044000B0044000C004402D
:1024000000D004401004FF1FA0900440A0A004408E
:10241000A0D00440010089B2002927D01B490978C7
:1024200051F08001194A11701449096851F00101F5
:10243000124A11600021124A116080B232214843D1
:102440001030202190FBF1F00F49086023200D4946
:10245000086001200A490860094800680006FBD5A9
:102460000748006840084000054908607047044874
:10247000006850F0800002490860704738800440CE
:1024800000000440040004400800044000500640DE
:1024900070B44FF0004591EA030F7FF59DAA6B40A1
:1024A000841A71EB030603D2001BB1411219734168
:1024B0004FF4001C1CEB410F34BF7CEB430442E0A3
:1024C0000C0DA4EB1356352E4FDC45EAC323DB0A73
:1024D00045EAC121C912B6F120050DDD63FA05F602
:1024E000EB4086EA0305124218BF45F00105C0180B
:1024F00051F100010CD213E062FA06F5F2405540AA
:10250000F3415A40B340F3405A408018594107D331
:1025100049085FEA30005FEA350528BF45F001054C
:1025200001F58011420875F1004250F1000041EBC5
:1025300004514E0016F5001F70BC38BF70470020D4
:10254000090D090570471CEB410F10D252EA4306F2
:102550000BD0BCEB410F05D80C0DAB43661E342EDF
:10256000B6DD02E0AB438018594170BC704770BCC7
:10257000704700002DE9F0439FB000BF66A6269C7F
:10258000DFF8E48A02918DF83B4000210B914FF077
:10259000FF37044691461D460AE019F8011B0298D0
:1025A000A0470028029000F0A4800B98401C0B90DC
:1025B00099F8000050B12528EFD1002000210590A6
:1025C00006910790089109900A9103E00B98A7E003
:1025D00041F0010119F8010F2028F9D023280CD06F
:1025E0002B2804D02D2805D0302809D083E041F0D5
:1025F0000201EFE741F00401ECE741F00801E9E7EF
:1026000041F01001E6E700200D900AE00D984045EA
:1026100005DA00EB800302EB4302303A0D9209F138
:10262000010999F80020A2F130000A28EED399F8A8
:1026300000002E2818BF0C9726D119F8010F2A2860
:1026400008D12868286009F1010950F8042B286096
:102650000C9219E02D280CBF19F8010B0020002264
:102660000C920BE040B90C9A424505DA02EB82026B
:1026700003EB4203303B0C9309F1010999F8003058
:10268000A3F130020A2AEDD3ADF83810304699F89C
:10269000001000F081FE08B119F8010B8DF83A0026
:1026A0009DF83A00682804BF99F80010682903D102
:1026B00062208DF83A0008E06C2804BF99F8000009
:1026C0006C2804D171218DF83A1009F1010910A884
:1026D00004902A4619F8013B6946204600F060F84C
:1026E00038B910AA6946204600F08CF900287FF519
:1026F0005FAF384614E02A2885D12A682A6052F84C
:10270000040B2A6000280D9003D540420D9041F043
:10271000040109F101098AE7686A6C747A4C0000C7
:102720001FB0BDE8F083622820D0682811D06A2845
:1027300003D06C2827D0712825D10868C01D20F04F
:1027400007000860D0E900230830086019461046E9
:102750007047002A0A680A60106803D0121D0A60D8
:1027600000B217E0121D0A6080B217E0002A0A6862
:102770000A60106803D0121D0A6040B20AE0121D00
:102780000A60C0B20AE0002A0A680A60106803D032
:10279000121D0A60C1177047121D0A6000217047A0
:1027A00070B51C460D46B4F125002E69114600F0A7
:1027B00017811C386AD0001F022867D9133843D00C
:1027C000093863D0801E16D0401E1ED0401E02283D
:1027D0005CD9001F19D0401F00F08380401E33D009
:1027E000401E00F0CD80C01E00F0D880801E2BD08F
:1027F000C01E29D0FAE06869421C6A610A680A6052
:1028000052F8043B0A603354FAE095F83A0001228A
:10281000FFF789FFC5E900010023994204DA6869DE
:10282000411C69612D210DE0288F810704D568695D
:10283000411C69612B2105E0C00722D56869411C54
:102840006961202131541CE095F83A000022FFF71D
:102850006AFFC5E9000195F83800010711D5D5E9EF
:1028600000230020834208BF82420AD044F02000A7
:10287000782806D1686930213154401C411C6961B7
:102880003454214668693044E86083E00868C01D1C
:1028900020F007000860D0E9002308300860C5E98F
:1028A0000023D5E90001C80F04D06869411C6961A3
:1028B0002D210DE0288F810704D56869411C6961CD
:1028C0002B2105E0C00704D56869411C69612021FE
:1028D000315468693044E8602146284600F0C4F964
:1028E0008EE005F13A02507820B14FF0FF340FF638
:1028F00048205EE01078622808D0682824D06A2832
:1029000012D06C282ED071280ED02BE00A680A60F5
:1029100052F8040B0A6020B94FF0FF340FF6302054
:1029200047E0E96A01706BE00A680A6052F8040B3C
:102930000A6020B94FF0FF340FF6142039E0EA6A3C
:10294000D317C0E900235BE00A680A6052F8040B61
:102950000A6020B94FF0FF340FF6F41029E0E96A5D
:1029600001804DE00A680A6052F8040B0A6020B941
:102970004FF0FF340FF6D8101BE0E96A01603FE02A
:102980000A680A6052F8040B0A600021C5E90001D8
:10299000EE607821284600F0BBF831E00868086056
:1029A00050F8044B0860EC603CB94FF0FF340FF670
:1029B000B81000F0FDFC201A70BD2E6B002E04D55F
:1029C000204600F015FD044608E03246002120466E
:1029D00000F02AFD002814BF041B3446AC610FE050
:1029E0006869411C69612521315409E06969481C05
:1029F000686125227254210002D0411C696134545F
:102A0000002070BD2DE9FC410F460646796B7869C0
:102A1000BC6A091A386A091AB869091A786A091A5F
:102A2000F869091A97F838000C1B410790460FD433
:102A30002021002C8DF800100ADD254601236A466E
:102A40003946304600F060FC00285DD16D1EF5D19E
:102A50007B6942463946304600F056FC002853D187
:102A600030208DF800003D6A002D09DD01236A4603
:102A70003946304600F048FC002845D16D1EF5D19E
:102A8000BB69FA683946304600F03EFC00283BD16D
:102A900030208DF800007D6A002D08DD01236A4694
:102AA0003946304600F030FC70BB6D1EF6D1F86838
:102AB000B969FB6942183946304600F025FC18BB5D
:102AC00030208DF80000BD6A002D08DD01236A4624
:102AD0003946304600F018FCB0B96D1EF6D197F8B3
:102AE000380041070DD52021002C8DF8001008DD9D
:102AF00001236A463946304600F006FC20B9641EC0
:102B0000F6D10020BDE8F6814FF0FF30BDE8F68138
:102B10002DE9FC4707468A463E69BAF16F0F08BFA8
:102B2000082405D04AF02001782914BF0A24102473
:102B30003C25D7E90023BAF1640F18BFBAF1690F39
:102B40009046994606D100218B4203DAD8F100085D
:102B500069EB49090020814508BF80451FD1386BCA
:102B6000E8B9082C4CD197F83800010748D5302037
:102B70003B2586F83B0043E000280ED597F8380047
:102B800000F01400102808D17A6B7869121A386A9C
:102B9000121A511A0029C8BF3962BDE8F3878DF8AF
:102BA00000A0404649462246E31700F069FC303257
:102BB000D0B26D1E3A28019504DB9DF80000A0F10B
:102BC00051018A187255404649462246E31700F0E3
:102BD00057FC804689460020814508BF804503D0C8
:102BE000F86871198842DCD3082C09D197F83800AD
:102BF000010705D5715D302902D06D1E302070555A
:102C0000C5F13C01B9617019F860386B8142B3DAE3
:102C1000411A39624FF6EF70398F01403987BDE8AC
:102C2000F3872DE9D04306460F4614464FF00008BF
:102C3000DFF8389412E0E00707D542464B463046AD
:102C40003946FEF7C7FF06460F464046494642460C
:102C50004B46FEF7BFFF641080468946002CEAD140
:102C600030463946BDE8D0832DE9F34F054641F0A3
:102C700020048DB0D5E90089612C02AE09D0286B03
:102C8000002848BF062003D408BF672C01D10120CB
:102C90002863D5E9002358004015401C0ED11903C4
:102CA0000CD00320A8619DF8380061381A2802D2A0
:102CB0000FF2D06111E00FF2D0610EE05800401524
:102CC000401C0FD119030DD10320A8619DF83800D5
:102CD00061381A2814D30FF2B861E868032200F0B3
:102CE000E7FCD3E1194621F00043B3F5801F1046FD
:102CF0000DD20027BB4208BFBA42019703D111E0B1
:102D00000FF28861E9E701AA00F026FD0AE0DFF88A
:102D1000607307EB1352DFF85C3301921940DFF860
:102D200058331943C5E90001612C0ED1E868302100
:102D30000170811CE9609DF8381061290CBF782171
:102D4000582141706869801C6861D5E900AB2BF09F
:102D5000004300202AF00002834204BF8242002385
:102D600000F05A81612C40F0A980286B00284CBFEC
:102D70002120401C00904046009F7F1C49460022B5
:102D80000023FEF7F9FED94601988DF8082038BFD8
:102D900089F00049001F0190002FD0460DF1090075
:102DA00040F3498140F2FF71DFF8D0B20C91064642
:102DB0004046494600220023FEF7C2FE80F03A81D9
:102DC0004800400D00F11C0210D0002A0EDD0C98C6
:102DD000824205DB09F0004040EA0B01002013E0CD
:102DE000A448084040EA025140460DE029F0004363
:102DF000002028F00002834208BF82420FBF4046F5
:102E00001C22404600F0E0FC8046894600F07AFD36
:102E1000FF1F002F044609DDFEF7CAFE02460B46DF
:102E200040464946FFF734FB80468946F01D07219E
:102E300004E004F00F0200F8012D2411002C01DD44
:102E4000491EF6D5491E5CBF002200F8012DF9D5B8
:102E5000ECE00020194602AA0A4400E05B1E12F8CA
:102E60000149491E8442F9D00F2804D10DF109000F
:102E7000425C521C4254002904D50198001D02AE48
:102E80005B1C0190591E12D49DF8380072181478FA
:102E900004F130085FFA88F4392CC4BFA0F13A0479
:102EA000A044491E02F80189F1D58DF83800286B3D
:102EB000002840F1B080591E2963ACE040464946E5
:102EC00000220023FEF758FE019938BF89F000491F
:102ED00047F2975041436A4A91FBF2F20192D2F1D4
:102EE000070204DD40464946FFF79BFE0AE05242D6
:102EF00000206449FFF795FE02460B4640464946CE
:102F0000FEF73AFF8046662C286BDFF87CB106BFDF
:102F1000019F0A3706273F18142FC8BF14273020F7
:102F20008DF8080089460DF1090000E03046002FB9
:102F300034DD06464046494600F002FD01460A4699
:102F400006F1080304200A26B2FBF6F606EB860E0D
:102F5000A2EB4E02303203F8012C0A22B6FBF2F249
:102F600002EB820EA6EB4E063036401E03F8026DD1
:102F7000E9D1083F002F03F10806D7DD084600F02D
:102F8000F3FC02460B4640464946FFF781FA002211
:102F90005B46FEF71FFE80468946CBE70DF109012F
:102FA000401A0DF1090604E00199491E401E0191E5
:102FB000761C31783029F7D0662C02D10199491C52
:102FC00003E0652C0CBF012100212B6BCB1898422C
:102FD000B8BF431E002B1ED4834204DAF05C3528B0
:102FE000A8BF392000DA30201946721E02EB010812
:102FF00000E05B1E18F80199491E8145F9D0392877
:1030000002D1705C401C7054002904D50198401C0A
:1030100016465B1C0190019800B200901BB29DF80F
:1030200038103246284600F035F82FE0C61D002F34
:103030003FF7BEAE30460DF10901401A0099034634
:103040008842C8BF0B46002B0DF109063FF52FAF94
:103050008342BFF6FEAE0DF10900C05C07287FF782
:10306000F8AE0F20F6E60000CBCCCC0C00002440DC
:1030700002FCFFFFFFFF0F800000E03F0000F07F39
:10308000A08601000000F03F84D797410FB0BDE853
:10309000F08F00002DE9FC43054683B01F46D5F8AC
:1030A0003080002F164602DC5FF00107B9A6894682
:1030B000BDF9304049F02000662808BF641C17D0D5
:1030C000672840F0888014F1040FC0F28A804445DC
:1030D00080F2878095F83800641C010702D44745C8
:1030E000B8BFB84620B2B8EB000848BF4FF00008A0
:1030F0000FFA84F9E868A969B9F1000F27DC4A1CC6
:1031000030234354B8F1000F03DC95F83800010771
:1031100003D5E8682E218154521C18EB090FB8BF63
:10312000C8F1000424B260426862A044B845AA61B4
:10313000B8BF4746E868AB693FB2EF613A463146EF
:10314000184400F0B5FAA8EB0700A862C5E022B267
:103150009742084419DA3A46314600F0A9FAA869BC
:103160003818A9EB0707B8F1000FA8616F6203DCFC
:1031700095F838100A0705D5E9682E220A54E8693F
:10318000401CE861C5F82880A7E0314600F090FABD
:10319000A8693F1BB8F1000F484403DC95F83810CC
:1031A0000A0703D5E9682E220A54401CA86138B2E8
:1031B0008045E868AB69B8BF47463AB206EB0901FB
:1031C000184400F075FAA8693FB23818A8EB070751
:1031D000A8616F6281E0B9F1610F16D14FF07009FB
:1031E00018E0474504DA95F838100A0758BFB84682
:1031F000B8F1010848BF4FF00008B9F1670F14BFDC
:103200004FF045094FF0650904E0B9F1410F08BFDF
:103210004FF05009A969EB68481CA861B8F1000F8C
:1032200016F8012B5A5403DC95F838100A0719D503
:10323000EA68431CAB612E211154B8F1000F11DD77
:103240007F1E38B28045E868B8BF47463AB231467B
:10325000184400F02DFAA8693FB23818A861A8EB0D
:1032600007006862E868A9690844002C80F80090AB
:1032700003D42B214170811C03E02D214170644255
:10328000811C00206A460AE023460A2493FBF4F4DA
:1032900004EB8406A3EB460302F8013B401C24B276
:1032A000002CF1DC012806DC49F02002652A04BF6D
:1032B000302201F8012B48B9302001F8010B07E05A
:1032C000401E1DF80020303201F8012B0028F7DCE9
:1032D000E868AA691044091AE96195F8380000F015
:1032E000140010280DD16969A8694118686A41184D
:1032F000E8694118A86A4118686B8142BCBF411A4D
:10330000296205B0BDE8F083F8B505460E461746BC
:103310001C46002074B117F8011BB068A847B060C4
:1033200030B1F06A401CF0620020641EF3D1F2BD9F
:103330004FF0FF30F2BD00007072696E74665F730B
:103340003A20256E20646973616C6C6F7765640048
:103350007072696E74663A2062616420256E206125
:103360007267756D656E74007072696E74665F73F6
:103370003A2062616420257320617267756D656E05
:10338000740000006E616E004E414E00696E660072
:10339000494E4600300000000278C9B28A421AB194
:1033A0001CBF10F8012FF9E718BF0020704700007C
:1033B00080B500B906A005490B681BB12222002187
:1033C000984701E000F0DDFA222002BD3006FF1F21
:1033D000636F6E73747261696E742068616E646C81
:1033E00065723A20626164206D6573736167650080
:1033F00000F10103810704D010F8011B89B1810796
:10340000FAD10268B2F10131914311F0803F04BF5B
:1034100050F8042FF6E710F8011B11B110F8011B4A
:10342000FBE7C01A70470000C9B2830706D0521EDE
:1034300022D310F8013B9942F7D11FE0083A13D389
:1034400002F1040241EA012141EA014150F8043B42
:10345000121F21BF4B40A3F1013C2CEA030C1CF0CE
:10346000803FF3D0C9B2001F083210F8013B521E52
:1034700028BF91EA030FF8D818BF0120401E7047FB
:10348000B3BBD9B1B2F5803F7DD2022A1ED98C469A
:10349000B1FBF2F102FB11C31B0443EA1043B3FB7F
:1034A000F2FC02FB1C3380B240EA0343B3FBF2F0B0
:1034B00002FB103240EA0C4000237047022A05D973
:1034C0008446B0FBF2F002FB10C270474AB105D14E
:1034D00000F0010249085FEA300070470022002333
:1034E000704700F051BA0B00020000210020704725
:1034F000904271EB030CF6D3B3F5803F2FD2F0B5B9
:10350000B3FA83F7B1FA81F4A7F10F0E3D1B5340D4
:10351000CEF1200602FA0EF2F3415340B5F10F0747
:1035200046D80F3C2C444140C4F12006A040F14154
:103530004140B1FBF3F603FB1611A2FB0645001B4D
:10354000A94102D2761E8018594180EA010221FA6F
:103550000EF362FA0EF200215A403046F0BD30B44C
:10356000B1FBF3FC03FB1C11A2FB0C45001BA941A2
:1035700003D2ACF1010C8018594130BC02460B4615
:10358000604600217047B2F1807F65D3F0B5B2FA92
:1035900082F7B1FA81F4C7F10F063D1B22FA06F358
:1035A00007F1110EF24120355A40B5F10F07B8D995
:1035B0004140C4F12006A040F1414140B1FBF3FC81
:1035C00003FB1C11A2FB0C45001BA94103D2BCF15B
:1035D000010C801859410F2F12D30F3FC90341EA44
:1035E0005041B1FBF3F603FB1611A2FB0645D4EBE9
:1035F000C030A94102D2761E8018594146EACC3C1F
:1036000007B34140C7F12006B840F1414140B1FB4A
:10361000F3F603FB1611A2FB0645001BA94102D2DB
:10362000761E8018594180EA010221FA0EF3C7F193
:10363000200462FA0EF20CFA07F05A402CFA04F158
:103640003043F0BD80EA010221FA0EF3002162FA54
:103650000EF260465A40F0BD8C46B1FBF2F102FB1F
:1036600011C31B0243EA1063B3FBF2FC02FB1C33E1
:103670001B024CEA002043EA1063B3FBF2FC02FB9E
:103680001C331B024CEA002043EA1063B3FBF2FC3C
:1036900002FB1C331B024CEA002043EA1063B3FB1D
:1036A000F2FC02FB1C324CEA0020002370470000B1
:1036B00062B38B0708D0521E11F8013B00F8013BA2
:1036C00000F024808B07F6D1830740F0208000BFF4
:1036D000103A07D330B4B1E83810103AA0E83810E7
:1036E000F9D230BC530724BFB1E80810A0E8081095
:1036F00044BF51F8043B40F8043BD20724BF31F8E3
:10370000022B20F8022B44BF0B7803707047121F66
:1037100017D35B0009D151F8043B20F8023B1B0C86
:10372000121F20F8023BF6D20BE051F8043B00F8E0
:10373000013B1B0A20F8023B1B0C121F00F8013B47
:10374000F3D238BF121D521E24BF11F8013B00F8FE
:10375000013BF8D87047000010B5144600F002F89D
:10376000226010BDC1F30A5343B14A0012F5001F95
:1037700028D2A3F2FE32A1EB0251704750EA410C6D
:1037800020D001F0004C31EA0C01B1FA81F204BF03
:10379000B0FA80F3D2180B3AB2F120032CBF00FA32
:1037A00003F1914041EA0C013EBFC2F1200C20FA26
:1037B0000CF319439040524240F2FD33D21A01EB10
:1037C0000351704700227047124254D440F2FF7CEC
:1037D0001CEA11530FD0634531D09B1863453CBFA1
:1037E00001EB0251704701F0004141EA0C51002009
:1037F000AFF30080704750EA410320D001F0004C45
:1038000091EA0C011CD0B1FA81F30B3B9A420DD91D
:10381000D21A994051EA0C01C3F1200C20FA0CFC99
:1038200061449840531C40F2FF7CD7E7914041EA45
:103830000C01C2F1200C20FA0CF3194390407047A0
:10384000B0FA80F31533202BE0D3202AEED3203AB0
:10385000203B9A4209D9D21A00FA03F141EA0C013D
:103860000020531C40F2FF7CB8E700FA02F141EA65
:103870000C0100207047524240F2FF7C1CEA1153B9
:103880000DD06345DBD0B2EB030C3CBFA1EB025182
:1038900070470CF1010221EA035141F4801150EA12
:1038A000410CCCD001F0004C352A27DC30B481EA41
:1038B0000C01B2F1200309DAC2F12003044601FA37
:1038C00003F5D0402843D1409C400CE0C3F12002D6
:1038D000450020FA03F418BF44F0010421FA03F074
:1038E00091400C43002174F1004550F1000051EB70
:1038F0000C01244230BC7FF47BAF7047614600204E
:1039000076E70000C1F30A5340F2FE329B1A14DD41
:10391000D3F120034FEAE17208DDC90241EA5051B8
:1039200041F00040D84080185040704703F2E13029
:1039300010B1D24382F00040704700207047000071
:10394000400D491840EA81200CD2490DA1F5806153
:10395000491C40F0004005DBD1F11F0154BFC840B5
:10396000C017704700207047014648B1B0FA80F197
:103970008840C91CC1F58461090501EBD0214005CF
:103980007047012000F002B87047000080B500F0D9
:1039900007F8024A11001820ABBEFBE72600020020
:1039A00010B500F052F802000023DB430024106839
:1039B000984203D011000220ABBE146050689842B8
:1039C00003D0111D0220ABBE546010BDF0B583B012
:1039D000040000F03AF8A10047183D680026F643BD
:1039E000B54216D100F01AF83D68B5420FD100BFBC
:1039F00009A00090002C01D1002000E004200190DB
:103A00000320029069460120ABBE05003D6000F036
:103A100014F8280003B0F0BD3A7474000C4801217A
:103A2000BFF35F8FD0E84F3FC0E8421F002AF9D1B3
:103A3000BFF35F8F002BF3D170470548BFF35F8F53
:103A400000210170BFF35F8F70470248704700008C
:103A50004506FF1F5C04FF1F10F00700DFF8B814D5
:103A60000A684FF6FF010A40DFF8B01451EA00215E
:103A70000A43DFF8A40402607047DFF89C04006882
:103A8000C0F302207047012210F01F018A40DFF8C6
:103A9000901440B2400941F820207047020052B211
:103AA000002A09D50901DFF87C2440B210F00F008C
:103AB000104400F8041C04E00901DFF86C2440B253
:103AC0001154704710B410F00700D0F10703052B14
:103AD00001D3042301E0D0F10703041D072C01D218
:103AE000002000E0C01E012414FA03F35B1E1940FD
:103AF0008140012313FA00F0401E1040084310BC1F
:103B00007047000080B572B60B2000F057FA052010
:103B1000FFF7A2FF00F06AFB00F092FB00F05FFCF1
:103B200000F03AFB5FF4E131042000F034FD40F690
:103B3000D6334CF250320621DFF8F003FDF76EFD6C
:103B4000002341F246020021DFF8E403FDF766FDA1
:103B5000002341F246020121DFF8D403FDF75EFDA8
:103B60000120FEF761FA012301220A21DFF8C403D4
:103B7000FEF752FB8A220A21DFF8B803FEF7AFFBFB
:103B8000DFF8B403FDF755FE62B6042000F024FE12
:103B90000A21002000F0E0FEFFF76FFF0122012163
:103BA000FFF790FF01003020FFF778FF3D20FFF77F
:103BB0006AFF0020DFF88413086001F05DF8DFF889
:103BC00080030068002801D000F07CFFDFF8740358
:103BD0000068002801D001F04EF8DFF86C0300788F
:103BE0003328EADB0020DFF86013087001F0CEF81C
:103BF00001F0CDF8E1E780B5DFF85003006850F040
:103C00000100DFF848130860DFF84403007801285A
:103C100006D1DFF840030068401CDFF83813086065
:103C2000DFF830030068B0F5487F07D30020DFF8E5
:103C3000241308600220DFF818130870DFF8180357
:103C40000068401CDFF810130860DFF80C03006800
:103C500003287BD30020DFF800130860DFF8FC02A4
:103C60000078012837D1DFF8F8020068D32832DA6B
:103C7000DFF8F002006815381D282CD2DFF8E802C2
:103C8000006815381D2826D2DFF8D8020168DFF851
:103C9000D8020068091A142901DA012000E0002086
:103CA000C0B2FDF780FF002815D0B0480168B048C9
:103CB0000068091A192901DA012000E00020C0B2C9
:103CC000FDF771FF002806D0AA4800683C2802DAF8
:103CD0000220A2490870A248006840F205118842FB
:103CE00032DA9E48007800282ED19E4800681538A8
:103CF0001D2829D29C48006815381D2824D29948CF
:103D0000016899480068091A142901DA012000E0C5
:103D10000020C0B2FDF747FF002815D09348016886
:103D200093480068091A192901DA012000E00020EF
:103D3000C0B2FDF738FF002806D08E4800683C2846
:103D400002DA012085490870FDF70EFC83480078EF
:103D5000012804D188480068401C874908608648CB
:103D600000680A2809D30020834908607B4800784E
:103D7000022802D000207949087080480078012884
:103D800004D17F480068401C7D4908607C48006879
:103D90005A2802D301207B49087079480068A52879
:103DA00002D301207849087075480068F02805D3CF
:103DB0000020734908600120744908707448007835
:103DC000002808D173480078002804D172480068A0
:103DD000401C7149086070480068B0F5487F09D3FD
:103DE0006B480078002805D101206949087000203F
:103DF00069490860FCF7F0FF53480078401C5249BD
:103E00000870FCF79FFBFCF741FBFDF797FBFDF704
:103E100035FA52480078002801D1FCF7DBFCFCF7AA
:103E2000B2FC01BD80B5042000F0AAFC5B495C4AED
:103E3000127888545A480078401C594908705848EC
:103E40000078262802DB00205549087001BD80B5A6
:103E50005448006880063BD55248006850F0200066
:103E6000504908604520FEF72CFA012809D14E4838
:103E70000078002805D101204C49086001204A49FA
:103E800008704520FEF71DFA002821D14648007829
:103E900001281DD1012000F0C1FD454908603048CE
:103EA000006840F22311884207DB414800684FF464
:103EB0007A71B0FBF1F0DC2807D33D4800684FF47D
:103EC0007A71B0FBF1F0264908600020364908708D
:103ED00001BD80B537480068400514D535480068F5
:103EE00050F480603349086001220A211148FEF72E
:103EF000D7F927480078012805D101202549087005
:103F000000202349087001BD2B48006850F00100D3
:103F100029490860704700000CED00E00000FA0538
:103F200000E100E018ED00E000E400E000900B404C
:103F300000800340C0F00F4000A00340DC05FF1FDD
:103F40003804FF1F3404FF1F4406FF1F0C71034099
:103F50003706FF1F8805FF1F8405FF1F3E06FF1F52
:103F60002404FF1FB405FF1FB805FF1FC005FF1F76
:103F7000C405FF1FBC05FF1F8C05FF1F3D06FF1F6B
:103F80009405FF1F3F06FF1F4006FF1F4106FF1F4E
:103F90004306FF1F6404FF1F9005FF1FE005FF1F7E
:103FA0004206FF1FA0B004403C06FF1F18710340EB
:103FB0009805FF1FA0C004401C71034010B44C4979
:103FC000096851F478514A4C21600100C9B20029B6
:103FD0004BD0C0B2012818D047D303281BD017D329
:103FE00005281ED01AD3072821D01DD3092824D094
:103FF00020D30B2827D023D30D2827D029D30F284F
:104000002DD029D310282DD02FE0042200232CE01E
:104010000422022329E00422042326E004220823A8
:1040200023E004220A2320E004220C231DE00422C2
:104030000E231AE00422102317E00422122314E0B6
:104040000422142311E0042218230EE004221C236E
:104050000BE004221D2308E004221E2305E00422B5
:104060001F2302E003221623FFE780202149087066
:1040700012F0070020490870204800681F490968AD
:1040800051F47F011D4C21601D491E4C21601B49CC
:10409000086013F01F0050F040001B4908701B48D7
:1040A00000788006FBD5194800784006FBD5002033
:1040B0001049087015480078C0B2C0F38100032889
:1040C000F8D1DBB2103332204343022093FBF0F0EF
:1040D000D2B2521C90FBF2F00D4908600C48006807
:1040E0000521B0FBF1F00B49086010BC704700BF20
:1040F00038800440004006400440064000F0014083
:104100000000270444800440054006400640064065
:104110002806FF1F2C06FF1F43480068C0F302203B
:104120007047012210F01F018A40404940B2400907
:1041300041F820207047020052B2002A08D5090138
:104140003B4A40B210F00F00104400F8041C03E09A
:104150000901384A40B21154704710B410F00700FA
:10416000D0F10703052B01D3042301E0D0F10703AD
:10417000041D072C01D2002000E0C01E012414FA07
:1041800003F35B1E19408140012313FA00F0401E27
:104190001040084310BC704780B501230022022163
:1041A0002548FEF739F80123002203212248FEF7B3
:1041B00033F80123002204211F48FEF72DF801BD2A
:1041C00080B5C0B2002803D0022809D004D30BE088
:1041D0008420FEF776F808E08220FEF772F804E00B
:1041E0008320FEF76EF800E0FF2002BD80B50023BB
:1041F000012204211148FEF70FF80B2205210F4878
:10420000FEF76DF8FFF788FF00220021FFF7A5FFFA
:1042100001003D20FFF78FFF3D20FFF782FF0120C7
:1042200000F0D0FB01BD00000CED00E000E100E07B
:1042300018ED00E000E400E000F10F4080F00F40D6
:1042400080B50123012212210448FDF7E5FF012377
:10425000012213210148FDF7DFFF01BD80F00F406F
:1042600001000822DFF81003006850F40020DFF896
:1042700008331860DFF80003006830F48030DFF89E
:10428000F832186024E0DFF8F002006830F4003003
:10429000DFF8E432186009E00806F4D5DFF8D80248
:1042A000006850F40030DFF8D0321860DFF8C80240
:1042B000006850F48030DFF8C032186000BFDFF8CB
:1042C000B802006830F48030DFF8AC321860490082
:1042D0001000421EC0B20028DED170470100082243
:1042E000DFF89402006830F40020DFF88C321860A8
:1042F000DFF88402006830F48030DFF87C32186028
:1043000024E0DFF87402006830F40030DFF868322F
:10431000186009E00806F4D5DFF85C02006850F484
:104320000030DFF854321860DFF84C02006850F4B7
:104330008030DFF84432186000BFDFF83C020068CC
:1043400030F48030DFF83032186049001000421E2F
:10435000C0B20028DED1704710B50400B1F15000A2
:10436000C0B2FFF7BBFF2000C0B2000950F0100040
:10437000C0B2FFF7B3FF14F00F0454F001042000A3
:10438000C0B2FFF7ABFF10BD70B50400002509E017
:104390002000C0B2FFF764FF761C3000C0B2802856
:1043A000F6DB6D1C2800C0B208280CDAB5F150000D
:1043B000C0B2FFF793FF0120FFF790FF1020FFF737
:1043C0008DFF0026E9E770BD06E040F2375211008C
:1043D0004A1E0029FBD1401E0028F6D1704780B547
:1043E000002301221021DFF89001FDF715FF0023C3
:1043F00001221121DFF88001FDF70EFF00230122C9
:104400001221DFF87401FDF707FF002301221321B9
:10441000DFF86401FDF700FFDFF85C01006850F48D
:104420008030DFF854110860DFF84C01006830F488
:104430008020DFF8441108603220FFF7C5FFDFF865
:104440003801006850F48020DFF82C110860AE209D
:10445000FFF744FF0020FFF741FF1020FFF73EFF6A
:104460004020FFF73BFF8120FFF738FFCF20FFF709
:1044700035FFA120FFF732FFC820FFF72FFFA6204E
:10448000FFF72CFFA820FFF729FF3F20FFF726FFAB
:10449000D320FFF723FF0020FFF720FFD520FFF7F1
:1044A0001DFF8020FFF71AFFD920FFF717FFF1202B
:1044B000FFF714FFDA20FFF711FF1220FFF70EFFBE
:1044C000DB20FFF70BFF4020FFF708FF2020FFF75E
:1044D00005FF0220FFF702FF8D20FFF7FFFE1420EB
:1044E000FFF7FCFEA420FFF7F9FEA620FFF7F6FE7B
:1044F000AF20FFF7F3FE0020FFF746FF002100206A
:10450000FFF72AFF01BD2DE9F84304000D00160056
:1045100000200020002713E018494A46D2B20620A6
:10452000424301EB02004146C9B2405CFFF798FEEE
:1045300018F101084046C0B20628EDDBA41D7F1C1F
:104540003800C0B2305C002813D03800C0B2305CF4
:10455000B0F120092000C0B27F2801DB00246D1CCF
:104560002900C9B22000C0B2FFF7F6FE5FF00008D4
:10457000E0E7BDE8F183000080F00F40D04D00007F
:10458000012210F01F018A40DFF8581340B24009A1
:1045900041F82020704730B40200D2B2002A06D081
:1045A000022A2AD016D3042A4DD039D35EE0DFF890
:1045B0003823126852F48062DFF82C331A604FF40B
:1045C0004072DFF828331A604FF44072DFF820336E
:1045D0001A604BE0DFF81023126852F40062DFF833
:1045E00008331A604FF44072DFF808331A604FF452
:1045F0004072DFF804331A6038E0DFF8EC2212680A
:1046000052F48052DFF8E0321A604FF44072DFF863
:10461000EC321A604FF44072DFF8E4321A6025E0A1
:10462000DFF8C422126852F40052DFF8BC321A607C
:104630004FF44072DFF8CC321A604FF44072DFF86A
:10464000C8321A6012E0DFF8C422126852F48062A5
:10465000DFF8B8321A604FF44072DFF8B4321A60F3
:104660004FF44072DFF8AC321A60FFE7DFF8A8229F
:104670000300DBB252F82320D27812F0F302DFF805
:1046800098320400E4B253F82430DA70DFF888225C
:104690000300DBB252F823209278DFF87C3204006A
:1046A000E4B253F824309A700200D2B2002A03D048
:1046B0000200D2B2012A06D1DFF860221368DFF8C7
:1046C0006022534305E0DFF85C221368DFF85022D4
:1046D00053430A01B3FBF2F21400A4B2B4F5005F35
:1046E00001DB41F6FF72B3FBF1F3110089B2B3EBCA
:1046F0000113DFF824120400E4B251F824100C78FE
:1047000014F0E004C2F304210C43DFF80C1205009E
:10471000EDB251F825100C707F490400E4B251F855
:1047200024104A707C490200D2B251F82210897AD2
:1047300011F0E00113F01F030B4377490200D2B2DE
:1047400051F822108B7274490200D2B251F8221033
:10475000097C51F08801704A0300DBB252F8232033
:1047600011746D490200D2B251F82210C97851F08B
:104770000C01694AC0B252F82000C17030BC7047C9
:1047800065490200D2B251F8221009798906F7D59D
:104790006149C0B251F82000C07970475E4A0300F9
:1047A000DBB252F8232012791206F7D55A4AC0B26A
:1047B00052F82000C171704770B504000D0016005A
:1047C00005E029782000C0B2FFF7E8FF6D1C30003B
:1047D000461E0028F5D170BD80B5C0B2002806D0B5
:1047E000022818D00DD3042829D01ED331E04E481A
:1047F000007850F020004C4908701F20FFF7C0FEE1
:1048000027E04A48007850F02000484908702120ED
:10481000FFF7B6FE1DE04648007850F020004449FE
:1048200008702320FFF7ACFE13E04248007850F0F8
:104830002000404908702520FFF7A2FE09E03E480D
:10484000007850F020003C4908704220FFF798FEA5
:10485000FFE701BD00B585B00020FFF791FFC0B2B2
:1048600002003649684600F093FA14226946002097
:10487000FFF7A2FF05B000BD00B585B00120FFF72E
:104880007FFFC0B202002E49684600F081FA142270
:1048900069460120FFF790FF05B000BD00B599B053
:1048A0000220FFF76DFFC0B202002549684600F004
:1048B0006FFA642269460220FFF77EFF19B000BD3F
:1048C00000B585B00320FFF75BFFC0B202001C49B2
:1048D000684600F05DFA142269460320FFF76CFF7A
:1048E00005B000BD00E100E0348004403C9004408D
:1048F000389004400CB0044010B004400CC0044098
:1049000008C0044040B0044044B004402880044043
:1049100064D0044060D004404804FF1F2806FF1FF5
:1049200040420F002C06FF1F03A0064003B00640C4
:1049300003C0064003D0064003A00E40AC54000064
:10494000C0540000012210F01F018A40554940B2B6
:10495000400941F82020704780B5534A126852F44C
:104960000002514B1A60514A1268920892004F4B54
:104970001A6049F6404251434D4A0300DBB21B0125
:10498000D1504B490200D2B212011144C96851F012
:104990000101474A0300DBB21B011A44D1604449BC
:1049A0000200D2B212011144896851F00301404A59
:1049B0000300DBB21B011A449160303040B2FFF7B4
:1049C000C1FF01BD3849096851F40001364A116040
:1049D0000021364A11605FF0FF31354A0300DBB237
:1049E0001B01D15032490200D2B212011144C968F0
:1049F00051F001012E4A0300DBB21B011A44D160C1
:104A00002B490200D2B212011144896849084900B9
:104A1000274AC0B2000110448160704710B45FF0B3
:104A2000FF3223490300DBB21B0119444968511AC4
:104A3000204A914200D320491D4A0300DBB21B01EA
:104A40001A44D268D20700D51B49194A0300DBB2C9
:104A50001B011A44D26852F00102154B0400E4B263
:104A600024012344DA60124A0300DBB21B011A441A
:104A70009268520852000E4BC0B200011844826086
:104A8000080010BC70470D48006850F001000B4949
:104A9000086070470A48006850F001000849086043
:104AA0007047000000E100E03C80044000700340DB
:104AB00000710340E1930400E09304002C71034073
:104AC0003C710340F8B59348006800909248006834
:104AD000FCF756FF02000B009049914800F058F98E
:104AE0008F4A06210020FFF70EFD8E480068FCF774
:104AF00047FFCDE900018C4802688C49884800F0E6
:104B000047F9874A00210020FFF7FDFC884800682C
:104B1000FCF736FFCDE900018648026883498048EA
:104B200000F036F97E4A01210020FFF7ECFC8248B4
:104B30000068FCF725FFCDE90001804802687B4949
:104B4000774800F025F9764A02210020FFF7DBFCC8
:104B50007B480068FCF714FFCDE900017948026842
:104B600072496F4800F014F96D4A03210020FFF7E5
:104B7000CAFC75480068FCF703FFCDE900017348E3
:104B800002686A49664800F003F9654A042100207A
:104B9000FFF7B9FC6E480068FCF7F2FECDE90201B0
:104BA0006C480068FCF7ECFECDE900016A48026839
:104BB0006A495B4800F0ECF8594A05210020FFF7EC
:104BC000A2FC674802786749554800F0E1F8544A6A
:104BD00001213C20FFF797FC634802786149504867
:104BE00000F0D6F84E4A02213C20FFF78CFC5F48CB
:104BF00002785C494A4800F0CBF8494A03213C203E
:104C0000FFF781FC5A4802785649454800F0C0F841
:104C1000434A04213C20FFF776FC564802783AA12B
:104C20003F4800F0B5F83E4A00215020FFF76BFCEA
:104C30005148027834A13A4800F0AAF8384A0121D4
:104C40005020FFF760FC4D48026830A1344800F066
:104C50009FF8334A02215020FFF755FC484802785C
:104C60002BA12F4800F094F82D4A03215020FFF784
:104C70004AFC05B000BD704780B50120FFF7A0FADF
:104C8000002808D10120FFF79BFA0120FFF798FACE
:104C9000002838D1F9E70220FFF792FA002808D15E
:104CA0000220FFF78DFA0220FFF78AFA00282AD1A6
:104CB000F9E70020FFF784FA002824D10020FFF74D
:104CC0007FFA00281AD12F480078012802D102204B
:104CD0002C4908702B480078002805D1012029496B
:104CE000087001202849087026480078022805D15C
:104CF0000020244908700020234908700020FFF795
:104D00005FFA0028FAD001BD253164002536640021
:104D1000253764003004FF1FD005FF1FD454000066
:104D20007005FF1F5805FF1FB405FF1FE05400006A
:104D30005C05FF1FB805FF1F6405FF1FC005FF1FAF
:104D40006805FF1FC405FF1F6005FF1FBC05FF1F8F
:104D5000D405FF1F6C05FF1FC805FF1F98540000F6
:104D60003406FF1F945500003506FF1F3606FF1F4F
:104D70003706FF1F3906FF1F3B06FF1F2404FF1FD6
:104D80003E06FF1F6504FF1F6404FF1F7047704746
:104D90000CB430B583B0044606A802900A4600253C
:104DA0000194009502AB01A9084878441E30FDF734
:104DB000E1FB01990D7000284EBF04460198041BC9
:104DC000204603B030BC5DF80CFB00BFA3CDFFFF55
:104DD0000000000000000000002F0000000007009D
:104DE000070000147F147F1400242A7F2A12006217
:104DF00064081323003649552250000005030000C3
:104E000000001C224100000041221C000014083E4A
:104E100008140008083E0808000000A06000000810
:104E20000808080800006060000000201008040264
:104E3000003E5149453E0000427F40000042615122
:104E40004946002141454B31001814127F100027BC
:104E500045454539003C4A4949300001710905037F
:104E600000364949493600064949291E00003636B0
:104E70000000000056360000000814224100001413
:104E800014141414000041221408000201510906F0
:104E900000324959513E007C1211127C007F494971
:104EA0004936003E41414122007F4141221C007FA2
:104EB00049494941007F09090901003E4149497AB0
:104EC000007F0808087F0000417F4100002040412A
:104ED0003F01007F08142241007F40404040007F96
:104EE000020C027F007F0408107F003E4141413EDA
:104EF000007F09090906003E4151215E007F091922
:104F000029460046494949310001017F0101003F1E
:104F10004040403F001F2040201F003F4038403F9E
:104F20000063140814630007087008070061514902
:104F3000454300007F41410000552A552A55000095
:104F400041417F0000040201020400404040404013
:104F5000000001020400002054545478007F4844AB
:104F6000443800384444442000384444487F0038E2
:104F70005454541800087E0901020018A4A4A47C0B
:104F8000007F080404780000447D400000408084D5
:104F90007D00007F102844000000417F4000007C1D
:104FA00004180478007C0804047800384444443829
:104FB00000FC242424180018242418FC007C080475
:104FC000040800485454542000043F444020003C4E
:104FD0004040207C001C2040201C003C4030403CD5
:104FE000004428102844001CA0A0A07C0044645465
:104FF0004C4414141414141480B52E480178C9B20A
:105000002D4800F085F801BD80B52C48006850F0AF
:1050100080702A4908602A4800F07AF801BD2DE91D
:10502000F84F046845688668C768D0F81080D0F8E3
:105030001490D0F818A0D0F81CB0224800F068F8FE
:105040002100214800F064F82900204800F060F8B1
:1050500031001F4800F05CF839001E4800F058F895
:1050600041461D4800F054F849461C4800F050F8ED
:1050700051461B4800F04CF859461A4800F048F8D1
:1050800019480168194800F043F81948016819489F
:1050900000F03EF818480168184800F039F8184840
:1050A0000168184800F034F817480168174800F004
:1050B0002FF8FEE704ED00E0D0520000109004400D
:1050C0002853000068540000EC540000F85400001D
:1050D00004550000105500001C5500002855000024
:1050E000345500004055000038ED00E04C550000FC
:1050F00028ED00E0585500002CED00E0645500005C
:1051000030ED00E0705500003CED00E07C55000003
:105110000EB4C0B5024603A800210190009101AB76
:105120000121044878440C30FDF724FA06BC5DF8F0
:1051300010FB00BF4D03000080B500F05BF800F0ED
:1051400009F82148006850F470001F490860FEF714
:10515000D9FCFEE780B51D481D4988420BD00020D0
:1051600006E01B4951F82010184A42F82010401C54
:10517000B0F5826FF5D3154800F058F8154A164B74
:105180001649C91A03E0187810705B1C521C0800FD
:10519000411E0028F7D1124A1249891A02E0002064
:1051A0001070521C0800411E0028F8D10E4A0F4B07
:1051B0000F49C91A03E0187810705B1C521C0800D4
:1051C000411E0028F7D101BD88ED00E00000FF1F5F
:1051D000000000001004FF1F385200009052000031
:1051E0006804FF1F4806FF1F4806FF1FD00100008C
:1051F000D001000080B500F009F80A4801884FF698
:10520000FE7001400748018001BD000072B64CF2FB
:105210002050054908804DF628100349088062B6E1
:1052200070470000002005400E200540014908603D
:105230007047000008ED00E000F00F4040F00F4024
:1052400080F00F40C0F00F4000F10F402C01000033
:105250000000A0400000C03FD60B0000010000008D
:10526000010000000000803F0000F0410000C03F4E
:1052700000A0064000B0064000C0064000D0064036
:1052800000A00E40FFFFFFFFFFFFFFFF0101000036
:1052900019E050F8042BD30744BFA9F101039A1871
:1052A000091F0023042942F8043BF9D25FEA817CFC
:1052B000134604D54FF0000CA2F800C09B1CC90790
:1052C00044BF0021197050F8041B0029E1D1704738
:1052D0000A2A2A2A2A64656661756C745F6973728A
:1052E00020656E7465726564206F6E2076656374E8
:1052F0006F722025642A2A2A2A2A0D0A0A00000031
:1053000010B5074979441831064C7C44163404E042
:105310000A68081D114488470146A142F8D110BD12
:1053200094000000A00000000A2A2A2A2A41626F85
:10533000727420627574746F6E20696E7465727217
:105340007570742A2A2A2A0A0A0000000748006891
:1053500050F01000054908600348006830F0100064
:1053600001490860704700000C8000402480004024
:105370004EF68851CEF20001086840F470000860D3
:10538000BFF34F8FBFF36F8F4FF00070E1EE100A45
:10539000704718B583B00300140000930191029484
:1053A00069460520ABBE01221900201AAFF3008028
:1053B00004B010BDDDFEFFFFE00100006804FF1F28
:1053C0000000000080B58DF8000001226946012030
:1053D00000F008F8012802D19DF8000002BD4FF04E
:1053E000FF3002BD80B5002802D400F003F802BDF2
:1053F000002002BD80B5002901D1002002BD012896
:1054000001D0022802D100F004F802BDFFF7C1FF6D
:1054100002BD30B583B00C0015000120FEF7D6FAAE
:1054200000900194029569460520ABBE281A03B08E
:1054300030BD000000F00DF8002801D0FFF760FF3C
:10544000AFF300800020AFF30080FEF75BFB00F0BD
:1054500002F80120704700F001B800000746384606
:10546000FEF794FAFBE700005B4861726420666116
:10547000756C742068616E646C65725D0A00000072
:1054800038B504460D462846FFF79CFFA84218BFD2
:105490000024204632BD0000253364202520332E11
:1054A0003166202520362E3166000000C4E3B7A205
:1054B000CBCDB5C4CAFDBEDDCEAAA3BA25780A00FD
:1054C000C4E3B7A2CBCDB5C4CAFDBEDDCEAAA3BA94
:1054D00025630A0025352E3366202533640000003D
:1054E000253364202520332E316600005230203DC4
:1054F0002025780A000000005231203D2025780A3E
:10550000000000005232203D2025780A00000000F3
:105510005233203D2025780A00000000523132200D
:105520003D2025780A0000004C52203D2025780AB5
:10553000000000005043203D2025780A00000000B4
:10554000505352203D2025780A0000004246415227
:10555000203D2025780A000043465352203D202557
:10556000780A000048465352203D2025780A000062
:1055700044465352203D2025780A000041465352AC
:10558000203D2025780A0000AFF30080FFF7F0FEF1
:0C559000FFF750FF2025316400000000F0
:040000050000558919
:00000001FF
